:100000000C9446000C9465000C9465000C946500FB
:100010000C9465000C9465000C9465000C946500CC
:100020000C9465000C9465000C9465000C946500BC
:100030000C9465000C9465000C9465000C946500AC
:100040000C9402210C9465000C9465000C946500DE
:100050000C9465000C9465000C9465000C9465008C
:100060000C9465000C9465000C9465000C9465007C
:100070000C9465000C9465000C9465000C9465006C
:100080000C9465000C9465000C94650011241FBE4F
:10009000CFEFD0E1DEBFCDBF11E0A0E0B1E0E4EEF4
:1000A000FCE400E00BBF02C007900D92A039B1073D
:1000B000D9F711E0A0E9B1E001C01D92A73DB10759
:1000C000E1F70E9467000C9470260C9400000E94D7
:1000D000461D0E94FC220E94F62281E090E00E94D0
:1000E000D0040E9476040E949404FBCFFC0111828C
:1000F0001082049693838283F583E48317821682A9
:100100000895FC01828193810895FC01828193818D
:1001100008959C012C5F3F4FC9010895FC01848123
:1001200095810895FC018081918108950895089535
:100130009C012C5F3F4FC9010895CF93DF939C0131
:10014000DB01EC018881998111969C938E93139623
:100150003C932E931297E881F981738362837983AC
:100160006883DF91CF9108950F931F93CF93DF930F
:100170008C01EB01FA016417750711F1A081B181BF
:100180002881398112968D919C911397F90193835F
:1001900082831296ED91FC91139731832083F801AD
:1001A000808191819983888313961C930E93129773
:1001B00080819181FC0173836283F801B183A08304
:1001C000DF91CF911F910F910895FC01A281B3811E
:1001D0008D919C911197FB0191838083B383A283BE
:1001E000ED91FC911197738362836D937C930895D5
:1001F000FC0184819581DB0111969C938E9334964A
:100200001396FC93EE9312973497A481B5811396BD
:100210007C936E931297758364830895DC012D910E
:100220003C91119712968D919C911397F9019383AC
:1002300082831296ED91FC9113973183208312965D
:100240008C91129713969C910895FC01A281B38121
:100250002D913C91119712968D919C911397F901D4
:10026000938382831296ED91FC91139731832083BF
:10027000CD010895FC01A481B5812D913C91119788
:1002800012968D919C911397F90193838283129614
:10029000ED91FC91139731832083CD010895FC01EA
:1002A000828193810895FC01848195810895FC01E8
:1002B000A281B3813496AE17BF0769F020E030E029
:1002C0002F5F3F4F12960D90BC91A02DAE17BF0728
:1002D000B9F7C901089520E030E0FBCFFC0120E030
:1002E0008281938134968E179F0711F0822F089593
:1002F00021E0822F0895CF93DF93EC01EA81FB8107
:10030000AC014C5F5F4FE417F50709F180819181E3
:10031000228133812083318393838283C901FC014D
:100320008417950799F7AA81BB81EC81FD81FB8336
:10033000EA83BD83AC832081318112968D919C919B
:1003400013979183808313963C932E931297DF919A
:10035000CF9108952F923F924F925F926F927F922A
:100360008F929F92AF92BF92CF92DF92EF92FF92C5
:100370000F931F93CF93DF931C014B015A0184E02D
:10038000682E712C620C731CD1011296CD90DC90FA
:100390001397442455246C147D04D1F10894411C16
:1003A000511CF601028113816016710689F1F80172
:1003B00060817181C801A501F4010995F8018823C4
:1003C00089F3E280F3806E147F0409F460C0D701E2
:1003D0006D917C91C701A501F4010995F70188236E
:1003E00081F3C016D10681F00E151F0569F0C80112
:1003F000B601A501F4010995882311F5F601C28023
:10040000D380C016D10681F767016C147D0431F6E4
:10041000B2E04B16510408F0B7CFDF91CF911F9196
:100420000F91FF90EF90DF90CF90BF90AF909F9093
:100430008F907F906F905F904F903F902F90089596
:10044000D80112960D911C911397F801C081D181AA
:100450000C171D0731F2A881B9818A819B811396FF
:100460009C938E931297EA81FB81B183A083D6017E
:100470008D919C91119799838883DB82CA82ED913B
:10048000FC911197D383C283CD93DC93AACF7301E0
:10049000A8CFAF92BF92CF92DF92EF92FF920F93CD
:1004A0001F93CF93DF93FC018B015A016901C28135
:1004B000D38194E0E92EF12CEE0EFF1ECE15DF0560
:1004C00039F40DC00A80DB81C02DCE15DF0539F06F
:1004D000C801BE01A601F5010995882399F3888119
:1004E0009981F80191838083D383C283E881F98164
:1004F0001383028319830883DF91CF911F910F919A
:10050000FF90EF90DF90CF90BF90AF9008956F92E3
:100510007F928F929F92AF92BF92CF92DF92EF9293
:10052000FF920F931F93CF93DF93FC014B016A015E
:1005300079010281138134E0A32EB12CA80EB91EDB
:100540000A151B05E9F024E0622E712C660E771E59
:100550006115710509F459C0F801C281D381AC1647
:10056000BD0671F0C801BE01A701F60109958823F7
:10057000B1F08E01F801C281D381AC16BD0691F7AE
:10058000DF91CF911F910F91FF90EF90DF90CF906F
:10059000BF90AF909F908F907F906F900895CE0105
:1005A000B801A701F6010995882319F7A881B98137
:1005B0008A819B8113969C938E931297EA81FB818B
:1005C000B183A083F40184819581998388837B82A0
:1005D0006A820480F581E02DD383C283D40115960D
:1005E000DC93CE931497B8CFCE01B801A701F601E2
:1005F00009958823D1F4E881F9818A819B819383CD
:100600008283AA81BB81ED93FC93D8011296CD9190
:10061000DC911397AC16BD0609F4B2CFC801BE0138
:10062000A701F60109958823F9F28E01EECFAF926A
:10063000BF92CF92DF92EF92FF920F931F93CF93CF
:10064000DF93FC015B016A010281138144E0E42E27
:10065000F12CE80EF91EE016F10699F0F801C281BE
:10066000D381EC16FD0669F0C801BE01A601F501B3
:10067000099581118E010A80DB81C02DEC16FD06E3
:1006800099F7C801DF91CF911F910F91FF90EF90E3
:10069000DF90CF90BF90AF900895AF92BF92CF926E
:1006A000DF92EF92FF920F931F93CF93DF93FC01A2
:1006B0005B016A010281138154E0E52EF12CE80E02
:1006C000F91EE016F10699F0F801C281D381EC160B
:1006D000FD0669F0CE01B801A601F5010995811169
:1006E0008E010A80DB81C02DEC16FD0699F7C8014A
:1006F000DF91CF911F910F91FF90EF90DF90CF90FE
:10070000BF90AF90089580E885BF08958A30910525
:10071000D8F46A307105C4F477FD16C0FB01EE0F02
:10072000FF1FEE56FE4F29E030E0281B390B81E019
:1007300090E002C0880F991F2A95E2F7208131814D
:10074000822B932B9183808308958A309105E8F45E
:100750006A307105D4F477FD18C0FB01EE0FFF1F5E
:10076000EE56FE4F29E030E0281B390B81E090E087
:1007700002C0880F991F2A95E2F7809590952081F5
:100780003181822393239183808308952091900166
:100790003091910181E090E0022E02C0880F991FF4
:1007A0000A94E2F79093058080930480F901EE0F9C
:1007B000FF1FEE56FE4F80819181909307808093BA
:1007C00006802F5F3F4F30939101209390012A3094
:1007D000310524F0109291011092900108958FEF4D
:1007E00093E090930580809304801092078010928C
:1007F0000680089584E1E2E9F1E0DF011D928A9527
:10080000E9F708955D9BFECF8CB908955D9BFECFFF
:100810008CB990E008955F9BFECF8CB190E0089575
:100820001AB81BB886E08093950087E689B91092C4
:10083000900088E18AB986E094E06BE074E00E9461
:10084000752508950E941A23FC0181E090E09583AC
:10085000848383E090E09387828782E090E09587AD
:1008600084878BE494E0938B828B8BE394E0958B6D
:10087000848BCF0108950F931F938C010E94322126
:10088000880F892F881F990B9195F801978386838C
:100890001F910F9108950F931F938C01FC01868186
:1008A00097816085718501960E948603F801868193
:1008B0009781608571856F5F7F4F01960E948603E7
:1008C000F801608571856F5F7F4F868197810E94F7
:1008D0008603F80186819781608571856F5F7F4F00
:1008E00002960E9486031F910F9108958091A601A0
:1008F0009091A7018230910589F08330910534F001
:100900008330910571F0049731F008950197E9F76C
:100910000E944C0508950E94B42308950E94482027
:1009200008950E94792308958091A6019091A701CE
:100930008230910589F08330910534F08330910540
:1009400071F0049731F008950197E9F70E94EE04E1
:1009500008950E94B32308950E947C1F08950E9469
:10096000782308958091A6019091A7018230910586
:1009700089F08330910534F08330910571F004974C
:1009800031F008950197E9F70E94160508950E9435
:10099000BE2308950E94C51E08950E9483230895D2
:1009A0009093A7018093A6018230910589F083304E
:1009B000910534F08330910571F0049731F008957A
:1009C0000197E9F70E94160508950E94BE23089535
:1009D0000E94C51E08950E9483230895089581E012
:1009E00061E00E948F08809122019091230101977C
:1009F00099F080E091E00E943F0C81E062E00E946B
:100A00008F088091220190912301029751F080E09C
:100A100091E00E943F0C089583E091E00E943F0C1A
:100A2000ECCF83E091E00E943F0C08950E94C30642
:100A300081E066E071E00E94210A82E064E171E0F9
:100A40000E94210A81E061E00E948F0880912201CA
:100A5000909123010197B1F080E091E00E943F0C5A
:100A600081E062E00E948F08809122019091230131
:100A7000029769F080E091E00E943F0C86B38823E2
:100A8000E9F7089583E091E00E943F0CE9CF83E00D
:100A900091E00E943F0CF2CF86B38830E9F08031BC
:100AA00091F0823009F00895809122019091230104
:100AB0008130910509F443C00297A9F784E090E0E2
:100AC0000E94D004089580912201909123018130E9
:100AD000910549F3019708C080912201909123016B
:100AE0008230910501F301969093230180932201B6
:100AF00081E061E00E948F088091220190912301A2
:100B00000197C1F080E091E00E943F0C81E062E03B
:100B10000E948F088091220190912301029729F071
:100B200080E091E00E943F0C089583E091E00E94F4
:100B30003F0C089583E091E00E943F0CE7CF82E0F4
:100B400090E00E94D0040895DF93CF9300D0CDB7FA
:100B5000DEB79C01215030408FEF2F3F3807A9F0BE
:100B60001A82198289819A810297A4F789819A81D0
:100B700001969A83898389819A810297BCF32150D7
:100B800030408FEF2F3F380759F70F900F90CF91DC
:100B9000DF910895AC016FE432E3141615063CF4BE
:100BA00020E02F5F822F90E084179507D4F3315017
:100BB000A1F7615088F70895DF93CF9300D0CDB7A8
:100BC000DEB7582F9091C001892F8D7080930180DE
:100BD000492F4C704093018020E030E005C02F5F2A
:100BE0003F4F25303105A1F01A82198289819A81FF
:100BF0000297ACF789819A8101969A8389838981CA
:100C00009A810297BCF32F5F3F4F2530310561F782
:100C10004460409301805093008020E030E005C0A4
:100C20002F5F3F4F2A303105A1F01A821982898146
:100C30009A810297ACF789819A8101969A83898378
:100C400089819A810297BCF32F5F3F4F2A3031058B
:100C500061F7842F8B708093C0018093018020E026
:100C600030E005C02F5F3F4F25303105A1F01A82DB
:100C7000198289819A810297ACF789819A810196BC
:100C80009A83898389819A810297BCF32F5F3F4FB2
:100C90002530310561F70F900F90CF91DF910895C6
:100CA000DF93CF9300D0CDB7DEB7582F8091C0012E
:100CB0008D7080930180482F41604093018020E037
:100CC00030E005C02F5F3F4F25303105A1F01A827B
:100CD000198289819A810297ACF789819A8101965C
:100CE0009A83898389819A810297BCF32F5F3F4F52
:100CF0002530310561F744604093018050930080B6
:100D000020E030E005C02F5F3F4F2A303105A1F0D1
:100D10001A82198289819A810297ACF789819A8116
:100D200001969A83898389819A810297BCF32F5F08
:100D30003F4F2A30310561F7842F8B708093C001BB
:100D40008093018020E030E005C02F5F3F4F2530C9
:100D50003105A1F01A82198289819A810297ACF734
:100D600089819A8101969A83898389819A810297E0
:100D7000BCF32F5F3F4F2530310561F70F900F9087
:100D8000CF91DF910895DF93CF9300D0CDB7DEB739
:100D90009091C001892F8D7080930180492F4C70F4
:100DA0004093018020E030E005C02F5F3F4F2530A9
:100DB0003105A1F01A82198289819A810297ACF7D4
:100DC00089819A8101969A83898389819A81029780
:100DD000BCF32F5F3F4F2530310561F744604093EE
:100DE000018081E08093008020E030E005C02F5F2B
:100DF0003F4F2A303105A1F01A82198289819A81E8
:100E00000297ACF789819A8101969A8389838981B7
:100E10009A810297BCF32F5F3F4F2A30310561F76B
:100E2000842F8B708093C0018093018020E030E09C
:100E300005C02F5F3F4F25303105A1F01A8219827E
:100E400089819A810297ACF789819A8101969A8368
:100E5000898389819A810297BCF32F5F3F4F2530A8
:100E6000310561F720E030E006C02F5F3F4F81E0A1
:100E7000243F3807A9F01A82198289819A81029742
:100E8000A4F789819A8101969A83898389819A81BD
:100E90000297BCF32F5F3F4F81E0243F380759F79B
:100EA0000F900F90CF91DF910895DF93CF93CDB73F
:100EB000DEB728970FB6F894DEBF0FBECDBF96E021
:100EC000FE013396DF01892F1D928A95E9F788E3A9
:100ED0008B838CE08C839D838091C0018B70809389
:100EE0000180982F926090930180482F4360409337
:100EF000018020E030E005C02F5F3F4F283C3105E6
:100F0000A1F01A82198289819A810297ACF78981AE
:100F10009A8101969A83898389819A810297BCF389
:100F20002F5F3F4F283C310561F7BE016A5F7F4F5D
:100F30005081842F8D70809301804C70409301808C
:100F400020E030E005C02F5F3F4F25303105A1F094
:100F50001A82198289819A810297ACF789819A81D4
:100F600001969A83898389819A810297BCF32F5FC6
:100F70003F4F2530310561F7446040930180509325
:100F8000008020E030E005C02F5F3F4F2A30310560
:100F9000A1F01A82198289819A810297ACF789811E
:100FA0009A8101969A83898389819A810297BCF3F9
:100FB0002F5F3F4F2A30310561F74B70409301801E
:100FC00020E030E005C02F5F3F4F25303105A1F014
:100FD0001A82198289819A810297ACF789819A8154
:100FE00001969A83898389819A810297BCF32F5F46
:100FF0003F4F2530310561F73196E617F70709F0C5
:1010000097CF842F8D70809301804C704093018026
:1010100020E030E005C02F5F3F4F25303105A1F0C3
:101020001A82198289819A810297ACF789819A8103
:1010300001969A83898389819A810297BCF32F5FF5
:101040003F4F2530310561F744604093018081E0D6
:101050008093008020E030E005C02F5F3F4F2A30B2
:101060003105A1F01A82198289819A810297ACF721
:1010700089819A8101969A83898389819A810297CD
:10108000BCF32F5F3F4F2A30310561F7842F8B70FF
:101090008093C0018093018020E030E005C02F5F85
:1010A0003F4F25303105A1F01A82198289819A813A
:1010B0000297ACF789819A8101969A838983898105
:1010C0009A810297BCF32F5F3F4F2530310561F7BE
:1010D00020E030E006C02F5F3F4FA1E0243F3A07F9
:1010E000A9F01A82198289819A810297A4F78981CD
:1010F0009A8101969A83898389819A810297BCF3A8
:101100002F5F3F4FA1E0243F3A0759F728960FB6CB
:10111000F894DEBF0FBECDBFCF91DF910895DF936E
:10112000CF9300D0CDB7DEB7482F613041F06230A9
:1011300009F488C00F900F90CF91DF91089590919E
:10114000C001892F8D7080930180592F5C7050935E
:10115000018020E030E005C02F5F3F4F2530310592
:10116000A1F01A82198289819A810297ACF789814C
:101170009A8101969A83898389819A810297BCF327
:101180002F5F3F4F2530310561F754605093018048
:1011900041584093008020E030E005C02F5F3F4F72
:1011A0002A303105A1F01A82198289819A81029729
:1011B000ACF789819A8101969A83898389819A8182
:1011C0000297BCF32F5F3F4F2A30310561F7852F1F
:1011D0008B708093C0018093018020E030E005C0D7
:1011E0002F5F3F4F25303105A1F01A821982898186
:1011F0009A810297ACF789819A8101969A838983B3
:1012000089819A810297BCF32F5F3F4F25303105CA
:1012100061F720E030E006C02F5F3F4F2E313105EF
:1012200009F488CF1A82198289819A810297A4F7DA
:1012300089819A8101969A83898389819A8102970B
:101240005CF7F6CF9091C001892F8D70809301805B
:10125000592F5C705093018020E030E005C02F5F73
:101260003F4F25303105A1F01A82198289819A8178
:101270000297ACF789819A8101969A838983898143
:101280009A810297BCF32F5F3F4F2530310561F7FC
:1012900054605093018041544093008020E030E03E
:1012A00005C02F5F3F4F2A303105A1F01A82198205
:1012B00089819A810297ACF789819A8101969A83F4
:1012C000898389819A810297BCF32F5F3F4F2A302F
:1012D000310561F7852F8B708093C0018093018069
:1012E00020E030E005C02F5F3F4F25303105A1F0F1
:1012F0001A82198289819A810297ACF789819A8131
:1013000001969A83898389819A810297BCF32F5F22
:101310003F4F2530310561F720E030E006C02F5FF8
:101320003F4F2E31310509F405CF1A821982898188
:101330009A810297A4F789819A8101969A83898379
:1013400089819A8102975CF7F6CFDF93CF9300D023
:10135000CDB7DEB7FC014081442309F46DC0809114
:10136000C0018D7080930180582F5160509301808F
:1013700020E030E005C02F5F3F4F25303105A1F060
:101380001A82198289819A810297ACF789819A81A0
:1013900001969A83898389819A810297BCF32F5F92
:1013A0003F4F2530310561F75460509301804093E1
:1013B000008020E030E005C02F5F3F4F2A3031052C
:1013C000A1F01A82198289819A810297ACF78981EA
:1013D0009A8101969A83898389819A810297BCF3C5
:1013E0002F5F3F4F2A30310561F7852F8B70809337
:1013F000C0018093018020E030E005C02F5F3F4FA7
:1014000025303105A1F01A82198289819A810297CB
:10141000ACF789819A8101969A83898389819A811F
:101420000297BCF32F5F3F4F2530310561F73196AE
:101430004081442309F093CF0F900F90CF91DF911B
:101440000895DF93CF9300D0CDB7DEB7FB01813095
:1014500009F479C0823009F4FBC04081442309F4C7
:101460006DC08091C0018D7080930180582F5160B4
:101470005093018020E030E005C02F5F3F4F2530C2
:101480003105A1F01A82198289819A810297ACF7FD
:1014900089819A8101969A83898389819A810297A9
:1014A000BCF32F5F3F4F2530310561F754605093F7
:1014B00001804093008020E030E005C02F5F3F4F67
:1014C0002A303105A1F01A82198289819A81029706
:1014D000ACF789819A8101969A83898389819A815F
:1014E0000297BCF32F5F3F4F2A30310561F7852FFC
:1014F0008B708093C0018093018020E030E005C0B4
:101500002F5F3F4F25303105A1F01A821982898162
:101510009A810297ACF789819A8101969A8389838F
:1015200089819A810297BCF32F5F3F4F25303105A7
:1015300061F731964081442309F093CF0F900F90CB
:10154000CF91DF9108959091C001892F8D70809384
:101550000180492F4C704093018020E030E005C0AD
:101560002F5F3F4F25303105A1F01A821982898102
:101570009A810297ACF789819A8101969A8389832F
:1015800089819A810297BCF32F5F3F4F2530310547
:1015900061F744604093C0014093018080E88093EC
:1015A000008020E030E005C02F5F3F4F2A3031053A
:1015B000A1F01A82198289819A810297ACF78981F8
:1015C0009A8101969A83898389819A810297BCF3D3
:1015D0002F5F3F4F2A30310561F7842F8B70809346
:1015E000C0018093018020E030E005C02F5F3F4FB5
:1015F00025303105A1F01A82198289819A810297DA
:10160000ACF789819A8101969A83898389819A812D
:101610000297BCF32F5F3F4F2530310561F720E083
:1016200030E006C02F5F3F4F2E31310509F415CF52
:101630001A82198289819A810297A4F789819A81F5
:1016400001969A83898389819A8102975CF7F6CF04
:101650009091C001892F8D7080930180492F4C702B
:101660004093018020E030E005C02F5F3F4F2530E0
:101670003105A1F01A82198289819A810297ACF70B
:1016800089819A8101969A83898389819A810297B7
:10169000BCF32F5F3F4F2530310561F74460409325
:1016A000C0014093018080EC8093008020E030E016
:1016B00005C02F5F3F4F2A303105A1F01A821982F1
:1016C00089819A810297ACF789819A8101969A83E0
:1016D000898389819A810297BCF32F5F3F4F2A301B
:1016E000310561F7842F8B708093C0018093018056
:1016F00020E030E005C02F5F3F4F25303105A1F0DD
:101700001A82198289819A810297ACF789819A811C
:1017100001969A83898389819A810297BCF32F5F0E
:101720003F4F2530310561F720E030E006C02F5FE4
:101730003F4F2E31310509F490CE1A8219828981EA
:101740009A810297A4F789819A8101969A83898365
:1017500089819A8102975CF7F6CFDF93CF9300D00F
:10176000CDB7DEB74091C00157E1842F8D708093D3
:101770000180482F41604093018020E030E005C0A7
:101780002F5F3F4F25303105A1F01A8219828981E0
:101790009A810297ACF789819A8101969A8389830D
:1017A00089819A810297BCF32F5F3F4F2530310525
:1017B00061F74460409301801092008020E030E0A7
:1017C00005C02F5F3F4F2A303105A1F01A821982E0
:1017D00089819A810297ACF789819A8101969A83CF
:1017E000898389819A810297BCF32F5F3F4F2A300A
:1017F000310561F74B704093018020E030E005C077
:101800002F5F3F4F25303105A1F01A82198289815F
:101810009A810297ACF789819A8101969A8389838C
:1018200089819A810297BCF32F5F3F4F25303105A4
:1018300061F720E030E005C02F5F3F4F2E313105CA
:10184000A1F01A82198289819A810297ACF7898165
:101850009A8101969A83898389819A810297BCF340
:101860002F5F3F4F2E31310561F7515008F07DCF8A
:101870004093C0010F900F90CF91DF910895DF93B7
:10188000CF9300D0CDB7DEB7DC015C91552309F4CE
:1018900019C160E08091C0018D7080930180482F54
:1018A00041604093018020E030E005C02F5F3F4F52
:1018B00025303105A1F01A82198289819A81029717
:1018C000ACF789819A8101969A83898389819A816B
:1018D0000297BCF32F5F3F4F2530310561F744601D
:1018E000409301805093008020E030E005C02F5FDE
:1018F0003F4F2A303105A1F01A82198289819A81DD
:101900000297ACF789819A8101969A8389838981AC
:101910009A810297BCF32F5F3F4F2A30310561F760
:101920004B704093C0014093018020E030E005C03F
:101930002F5F3F4F25303105A1F01A82198289812E
:101940009A810297ACF789819A8101969A8389835B
:1019500089819A810297BCF32F5F3F4F2530310573
:1019600061F720E030E005C02F5F3F4F2E31310599
:10197000A1F01A82198289819A810297ACF7898134
:101980009A8101969A83898389819A810297BCF30F
:101990002F5F3F4F2E31310561F76F5FFD01E60F7D
:1019A000F11D8081882309F48DC0603111F0582F1A
:1019B00071CF57E1842F8D7080930180482F416053
:1019C0004093018020E030E005C02F5F3F4F25307D
:1019D0003105A1F01A82198289819A810297ACF7A8
:1019E00089819A8101969A83898389819A81029754
:1019F000BCF32F5F3F4F2530310561F744604093C2
:101A000001801092008020E030E005C02F5F3F4F42
:101A10002A303105A1F01A82198289819A810297B0
:101A2000ACF789819A8101969A83898389819A8109
:101A30000297BCF32F5F3F4F2A30310561F74B709F
:101A40004093018020E030E005C02F5F3F4F2530FC
:101A50003105A1F01A82198289819A810297ACF727
:101A600089819A8101969A83898389819A810297D3
:101A7000BCF32F5F3F4F2530310561F720E030E0A8
:101A800005C02F5F3F4F2E313105A1F01A82198218
:101A900089819A810297ACF789819A8101969A830C
:101AA000898389819A810297BCF32F5F3F4F2E3142
:101AB000310561F7515008F07DCF4093C00180811E
:101AC000582FE8CE0F900F90CF91DF910895DF93BC
:101AD000CF9300D0CDB7DEB768EE73E00E94DE236F
:101AE000FC018091C0018D7080930180482F41607E
:101AF0004093018020E030E005C02F5F3F4F25304C
:101B00003105A1F01A82198289819A810297ACF776
:101B100089819A8101969A83898389819A81029722
:101B2000BCF32F5F3F4F2530310561F74460409390
:101B30000180CF0164E670E00E94DE23605D609367
:101B4000008020E030E005C02F5F3F4F2A30310594
:101B5000A1F01A82198289819A810297ACF7898152
:101B60009A8101969A83898389819A810297BCF32D
:101B70002F5F3F4F2A30310561F74B704093018052
:101B800020E030E005C02F5F3F4F25303105A1F048
:101B90001A82198289819A810297ACF789819A8188
:101BA00001969A83898389819A810297BCF32F5F7A
:101BB0003F4F2530310561F7CF0164E670E00E94A8
:101BC000DE23FC01842F8D7080930180482F4160BB
:101BD0004093018020E030E005C02F5F3F4F25306B
:101BE0003105A1F01A82198289819A810297ACF796
:101BF00089819A8101969A83898389819A81029742
:101C0000BCF32F5F3F4F2530310561F744604093AF
:101C10000180CF016AE070E00E94DE23605D609386
:101C2000008020E030E005C02F5F3F4F2A303105B3
:101C3000A1F01A82198289819A810297ACF7898171
:101C40009A8101969A83898389819A810297BCF34C
:101C50002F5F3F4F2A30310561F74B704093018071
:101C600020E030E005C02F5F3F4F25303105A1F067
:101C70001A82198289819A810297ACF789819A81A7
:101C800001969A83898389819A810297BCF32F5F99
:101C90003F4F2530310561F7842F8D70809301808F
:101CA000482F41604093018020E030E005C02F5F65
:101CB0003F4F25303105A1F01A82198289819A811E
:101CC0000297ACF789819A8101969A8389838981E9
:101CD0009A810297BCF32F5F3F4F2530310561F7A2
:101CE000446040930180CF016AE070E00E94DE23EF
:101CF000805D8093008020E030E005C02F5F3F4F83
:101D00002A303105A1F01A82198289819A810297BD
:101D1000ACF789819A8101969A83898389819A8116
:101D20000297BCF32F5F3F4F2A30310561F7842FB4
:101D30008B708093C0018093018020E030E005C06B
:101D40002F5F3F4F25303105A1F01A82198289811A
:101D50009A810297ACF789819A8101969A83898347
:101D600089819A810297BCF32F5F3F4F253031055F
:101D700061F70F900F90CF91DF910895DF93CF938C
:101D800000D0CDB7DEB764E670E00E94DE23AC0180
:101D90008091C0018D7080930180682F6160609395
:101DA000018020E030E005C02F5F3F4F2530310536
:101DB000A1F01A82198289819A810297ACF78981F0
:101DC0009A8101969A83898389819A810297BCF3CB
:101DD0002F5F3F4F2530310561F7646060930180CC
:101DE000CA01929582958F7089279F708927805D9F
:101DF0008093008020E030E005C02F5F3F4F2A3005
:101E00003105A1F01A82198289819A810297ACF773
:101E100089819A8101969A83898389819A8102971F
:101E2000BCF32F5F3F4F2A30310561F76B70609331
:101E3000018020E030E005C02F5F3F4F25303105A5
:101E4000A1F01A82198289819A810297ACF789815F
:101E50009A8101969A83898389819A810297BCF33A
:101E60002F5F3F4F2530310561F7862F8D708093AE
:101E70000180682F61606093018020E030E005C040
:101E80002F5F3F4F25303105A1F01A8219828981D9
:101E90009A810297ACF789819A8101969A83898306
:101EA00089819A810297BCF32F5F3F4F253031051E
:101EB00061F7646060930180842F8F70805D8093F0
:101EC000008020E030E005C02F5F3F4F2A30310511
:101ED000A1F01A82198289819A810297ACF78981CF
:101EE0009A8101969A83898389819A810297BCF3AA
:101EF0002F5F3F4F2A30310561F7862F8B7080931B
:101F0000C0018093018020E030E005C02F5F3F4F8B
:101F100025303105A1F01A82198289819A810297B0
:101F2000ACF789819A8101969A83898389819A8104
:101F30000297BCF32F5F3F4F2530310561F70F90BB
:101F40000F90CF91DF910895DF93CF9300D0CDB75D
:101F5000DEB764E670E00E94DE23FC018091C001E0
:101F60008D7080930180482F41604093018020E074
:101F700030E005C02F5F3F4F25303105A1F01A82B8
:101F8000198289819A810297ACF789819A81019699
:101F90009A83898389819A810297BCF32F5F3F4F8F
:101FA0002530310561F7446040930180CF016AE03C
:101FB00070E00E94DE23605D6093008020E030E0EE
:101FC00005C02F5F3F4F2A303105A1F01A821982D8
:101FD00089819A810297ACF789819A8101969A83C7
:101FE000898389819A810297BCF32F5F3F4F2A3002
:101FF000310561F74B704093018020E030E005C06F
:102000002F5F3F4F25303105A1F01A821982898157
:102010009A810297ACF789819A8101969A83898384
:1020200089819A810297BCF32F5F3F4F253031059C
:1020300061F7842F8D7080930180482F4160409319
:10204000018020E030E005C02F5F3F4F2530310593
:10205000A1F01A82198289819A810297ACF789814D
:102060009A8101969A83898389819A810297BCF328
:102070002F5F3F4F2530310561F744604093018069
:10208000CF016AE070E00E94DE23805D80930080D3
:1020900020E030E005C02F5F3F4F2A303105A1F02E
:1020A0001A82198289819A810297ACF789819A8173
:1020B00001969A83898389819A810297BCF32F5F65
:1020C0003F4F2A30310561F7842F8B708093C00118
:1020D0008093018020E030E005C02F5F3F4F253026
:1020E0003105A1F01A82198289819A810297ACF791
:1020F00089819A8101969A83898389819A8102973D
:10210000BCF32F5F3F4F2530310561F70F900F90E3
:10211000CF91DF910895DF93CF9300D0CDB7DEB795
:10212000BC018091C0018D7080930180482F416077
:102130004093018020E030E005C02F5F3F4F253005
:102140003105A1F01A82198289819A810297ACF730
:1021500089819A8101969A83898389819A810297DC
:10216000BCF32F5F3F4F2530310561F7446040934A
:102170000180CB016AE070E00E94DE23805D8093E5
:10218000008020E030E005C02F5F3F4F2A3031054E
:10219000A1F01A82198289819A810297ACF789810C
:1021A0009A8101969A83898389819A810297BCF3E7
:1021B0002F5F3F4F2A30310561F7842F8B7080935A
:1021C000C0018093018020E030E005C02F5F3F4FC9
:1021D00025303105A1F01A82198289819A810297EE
:1021E000ACF789819A8101969A83898389819A8142
:1021F0000297BCF32F5F3F4F2530310561F70F90F9
:102200000F90CF91DF910895DF93CF9300D0CDB79A
:10221000DEB7682F482F42954F704A3008F0DEC075
:102220008091C0018D7080930180582F5160509330
:10223000018020E030E005C02F5F3F4F25303105A1
:10224000A1F01A82198289819A810297ACF789815B
:102250009A8101969A83898389819A810297BCF336
:102260002F5F3F4F2530310561F754605093C00117
:1022700050930180405D4093008020E030E005C035
:102280002F5F3F4F2A303105A1F01A8219828981D0
:102290009A810297ACF789819A8101969A83898302
:1022A00089819A810297BCF32F5F3F4F2A30310515
:1022B00061F7852F8B708093C0018093018020E0AF
:1022C00030E005C02F5F3F4F25303105A1F01A8265
:1022D000198289819A810297ACF789819A81019646
:1022E0009A83898389819A810297BCF32F5F3F4F3C
:1022F0002530310561F7462F4F704A3008F4D6C0BB
:102300008091C0018D7080930180582F516050934F
:10231000018020E030E005C02F5F3F4F25303105C0
:10232000A1F01A82198289819A810297ACF789817A
:102330009A8101969A83898389819A810297BCF355
:102340002F5F3F4F2530310561F754605093018076
:10235000495A4093008020E030E005C02F5F3F4F96
:102360002A303105A1F01A82198289819A81029757
:10237000ACF789819A8101969A83898389819A81B0
:102380000297BCF32F5F3F4F2A30310561F7852F4D
:102390008B708093C0018093018020E030E005C005
:1023A0002F5F3F4F25303105A1F01A8219828981B4
:1023B0009A810297ACF789819A8101969A838983E1
:1023C00089819A810297BCF32F5F3F4F25303105F9
:1023D00061F70F900F90CF91DF9108958091C00128
:1023E0008D7080930180582F51605093018020E0C0
:1023F00030E005C02F5F3F4F25303105A1F01A8234
:10240000198289819A810297ACF789819A81019614
:102410009A83898389819A810297BCF32F5F3F4F0A
:102420002530310561F754605093C001509301800D
:10243000495A4093008020E030E005C02F5F3F4FB5
:102440002A303105A1F01A82198289819A81029776
:10245000ACF789819A8101969A83898389819A81CF
:102460000297BCF32F5F3F4F2A30310561F7852F6C
:102470008B708093C0018093018020E030E006C023
:102480002F5F3F4F2530310509F435CF1A8219826D
:1024900089819A810297A4F789819A8101969A830A
:1024A000898389819A8102975CF7F6CF8091C00178
:1024B0008D7080930180582F51605093018020E0EF
:1024C00030E005C02F5F3F4F25303105A1F01A8263
:1024D000198289819A810297ACF789819A81019644
:1024E0009A83898389819A810297BCF32F5F3F4F3A
:1024F0002530310561F7546050930180405D409371
:10250000008020E030E005C02F5F3F4F2A303105CA
:10251000A1F01A82198289819A810297ACF7898188
:102520009A8101969A83898389819A810297BCF363
:102530002F5F3F4F2A30310561F7852F8B708093D5
:10254000C0018093018020E030E006C02F5F3F4F44
:102550002530310509F43DCF1A82198289819A818B
:102560000297A4F789819A8101969A838983898148
:102570009A8102975CF7F6CFDF93CF9300D0CDB767
:10258000DEB7E82F843608F080C28A3008F038C100
:102590008091C0018D7080930180482F41604093ED
:1025A000018020E030E005C02F5F3F4F253031052E
:1025B000A1F01A82198289819A810297ACF78981E8
:1025C0009A8101969A83898389819A810297BCF3C3
:1025D0002F5F3F4F2530310561F744604093018004
:1025E00080E28093008020E030E005C02F5F3F4F05
:1025F0002A303105A1F01A82198289819A810297C5
:10260000ACF789819A8101969A83898389819A811D
:102610000297BCF32F5F3F4F2A30310561F74B70B3
:102620004093018020E030E005C02F5F3F4F253010
:102630003105A1F01A82198289819A810297ACF73B
:1026400089819A8101969A83898389819A810297E7
:10265000BCF32F5F3F4F2530310561F7842F8D701C
:1026600080930180482F41604093018020E030E05A
:1026700005C02F5F3F4F25303105A1F01A82198226
:1026800089819A810297ACF789819A8101969A8310
:10269000898389819A810297BCF32F5F3F4F253050
:1026A000310561F744604093018080E280930080AF
:1026B00020E030E005C02F5F3F4F2A303105A1F008
:1026C0001A82198289819A810297ACF789819A814D
:1026D00001969A83898389819A810297BCF32F5F3F
:1026E0003F4F2A30310561F74B704093018020E065
:1026F00030E005C02F5F3F4F25303105A1F01A8231
:10270000198289819A810297ACF789819A81019611
:102710009A83898389819A810297BCF32F5F3F4F07
:102720002530310561F7842F8D7080930180482F0B
:1027300041604093018020E030E005C02F5F3F4FB3
:1027400025303105A1F01A82198289819A81029778
:10275000ACF789819A8101969A83898389819A81CC
:102760000297BCF32F5F3F4F2530310561F744607E
:1027700040930180E05DE093008020E030E005C000
:102780002F5F3F4F2A303105A1F01A8219828981CB
:102790009A810297ACF789819A8101969A838983FD
:1027A00089819A810297BCF32F5F3F4F2A30310510
:1027B00061F7842F8B708093C0018093018020E0AB
:1027C00030E005C02F5F3F4F25303105A1F01A8260
:1027D000198289819A810297ACF789819A81019641
:1027E0009A83898389819A810297BCF32F5F3F4F37
:1027F0002530310561F70F900F90CF91DF9108954B
:102800008091C0018D7080930180482F416040937A
:10281000018020E030E005C02F5F3F4F25303105BB
:10282000A1F01A82198289819A810297ACF7898175
:102830009A8101969A83898389819A810297BCF350
:102840002F5F3F4F2530310561F744604093018091
:1028500080E28093008020E030E005C02F5F3F4F92
:102860002A303105A1F01A82198289819A81029752
:10287000ACF789819A8101969A83898389819A81AB
:102880000297BCF32F5F3F4F2A30310561F7542F79
:102890005B705093018020E030E005C02F5F3F4F18
:1028A00025303105A1F01A82198289819A81029717
:1028B000ACF789819A8101969A83898389819A816B
:1028C0000297BCF32F5F3F4F2530310561F78E2F04
:1028D0006AE00E94D223482F852F8D70809301805B
:1028E000582F51605093018020E030E005C02F5FE9
:1028F0003F4F25303105A1F01A82198289819A81D2
:102900000297ACF789819A8101969A83898389819C
:102910009A810297BCF32F5F3F4F2530310561F755
:10292000546050930180405D40930080405320E00C
:1029300030E005C02F5F3F4F2A303105A1F01A82E9
:10294000198289819A810297ACF789819A810196CF
:102950009A83898389819A810297BCF32F5F3F4FC5
:102960002A30310561F75B705093018020E030E040
:1029700005C02F5F3F4F25303105A1F01A82198223
:1029800089819A810297ACF789819A8101969A830D
:10299000898389819A810297BCF32F5F3F4F25304D
:1029A000310561F7852F8D7080930180582F51601C
:1029B0005093018020E030E005C02F5F3F4F25306D
:1029C0003105A1F01A82198289819A810297ACF7A8
:1029D00089819A8101969A83898389819A81029754
:1029E000BCF32F5F3F4F2530310561F754605093A2
:1029F0000180E05D842F90E09C01220F331F220FA5
:102A0000331F220F331F880F991F280F391FE21B16
:102A1000E093008020E030E005C02F5F3F4F2A3078
:102A20003105A1F01A82198289819A810297ACF747
:102A300089819A8101969A83898389819A810297F3
:102A4000BCF32F5F3F4F2A30310561F7852F8B7024
:102A50008093C0018093018020E030E006C02F5FAA
:102A60003F4F2530310509F4C6CE1A82198289817B
:102A70009A810297A4F789819A8101969A83898322
:102A800089819A8102975CF7F6CF64E60E94D2238F
:102A9000482F8091C0018D7080930180582F516024
:102AA0005093018020E030E005C02F5F3F4F25307C
:102AB0003105A1F01A82198289819A810297ACF7B7
:102AC00089819A8101969A83898389819A81029763
:102AD000BCF32F5F3F4F2530310561F754605093B1
:102AE0000180405D40930080405320E030E005C00D
:102AF0002F5F3F4F2A303105A1F01A821982898158
:102B00009A810297ACF789819A8101969A83898389
:102B100089819A810297BCF32F5F3F4F2A3031059C
:102B200061F7F52FFB70F093018020E030E005C0E5
:102B30002F5F3F4F25303105A1F01A82198289811C
:102B40009A810297ACF789819A8101969A83898349
:102B500089819A810297BCF32F5F3F4F2530310561
:102B600061F78CE99FEF489F402D11244E0F842F71
:102B70006AE00E94D223582F8F2F8D70809301809E
:102B8000682F61606093018020E030E005C02F5F16
:102B90003F4F25303105A1F01A82198289819A812F
:102BA0000297ACF789819A8101969A8389838981FA
:102BB0009A810297BCF32F5F3F4F2530310561F7B3
:102BC000646060930180505D50930080505320E01A
:102BD00030E005C02F5F3F4F2A303105A1F01A8247
:102BE000198289819A810297ACF789819A8101962D
:102BF0009A83898389819A810297BCF32F5F3F4F23
:102C00002A30310561F76B706093018020E030E07D
:102C100005C02F5F3F4F25303105A1F01A82198280
:102C200089819A810297ACF789819A8101969A836A
:102C3000898389819A810297BCF32F5F3F4F2530AA
:102C4000310561F7862F8D7080930180682F616058
:102C50006093018020E030E005C02F5F3F4F2530BA
:102C60003105A1F01A82198289819A810297ACF705
:102C700089819A8101969A83898389819A810297B1
:102C8000BCF32F5F3F4F2530310561F764606093DF
:102C90000180405D852F90E09C01220F331F220FA1
:102CA000331F220F331F880F991F280F391F421B14
:102CB0004093008020E030E005C02F5F3F4F2A3076
:102CC0003105A1F01A82198289819A810297ACF7A5
:102CD00089819A8101969A83898389819A81029751
:102CE000BCF32F5F3F4F2A30310561F7862F8B7081
:102CF0008093C0018093018020E030E006C02F5F08
:102D00003F4F2530310509F476CD1A821982898129
:102D10009A810297A4F789819A8101969A8389837F
:102D200089819A8102975CF7F6CF0F931F93DF9307
:102D3000CF9300D0CDB7DEB78C0168EE73E00E9470
:102D4000DE23CB0168EE73E00E94DE23FC0180915C
:102D5000C0018D7080930180482F416040930180B5
:102D600020E030E005C02F5F3F4F25303105A1F056
:102D70001A82198289819A810297ACF789819A8196
:102D800001969A83898389819A810297BCF32F5F88
:102D90003F4F2530310561F7446040930180CF01FA
:102DA00064E670E00E94DE23605D6093008020E0B6
:102DB00030E005C02F5F3F4F2A303105A1F01A8265
:102DC000198289819A810297ACF789819A8101964B
:102DD0009A83898389819A810297BCF32F5F3F4F41
:102DE0002A30310561F74B704093018020E030E0DC
:102DF00005C02F5F3F4F25303105A1F01A8219829F
:102E000089819A810297ACF789819A8101969A8388
:102E1000898389819A810297BCF32F5F3F4F2530C8
:102E2000310561F7CF0164E670E00E94DE23FC010A
:102E3000842F8D7080930180482F416040930180E2
:102E400020E030E005C02F5F3F4F25303105A1F075
:102E50001A82198289819A810297ACF789819A81B5
:102E600001969A83898389819A810297BCF32F5FA7
:102E70003F4F2530310561F7446040930180CF0119
:102E80006AE070E00E94DE23605D6093008020E0D5
:102E900030E005C02F5F3F4F2A303105A1F01A8284
:102EA000198289819A810297ACF789819A8101966A
:102EB0009A83898389819A810297BCF32F5F3F4F60
:102EC0002A30310561F74B704093018020E030E0FB
:102ED00005C02F5F3F4F25303105A1F01A821982BE
:102EE00089819A810297ACF789819A8101969A83A8
:102EF000898389819A810297BCF32F5F3F4F2530E8
:102F0000310561F7842F8D7080930180482F4160D7
:102F10004093018020E030E005C02F5F3F4F253017
:102F20003105A1F01A82198289819A810297ACF742
:102F300089819A8101969A83898389819A810297EE
:102F4000BCF32F5F3F4F2530310561F7446040935C
:102F50000180CF016AE070E00E94DE23805D8093F3
:102F6000008020E030E005C02F5F3F4F2A30310560
:102F7000A1F01A82198289819A810297ACF789811E
:102F80009A8101969A83898389819A810297BCF3F9
:102F90002F5F3F4F2A30310561F74B70409301801E
:102FA00020E030E005C02F5F3F4F25303105A1F014
:102FB0001A82198289819A810297ACF789819A8154
:102FC00001969A83898389819A810297BCF32F5F46
:102FD0003F4F2530310561F7C80168EE73E00E946C
:102FE000DE23FC01842F8D7080930180482F416087
:102FF0004093018020E030E005C02F5F3F4F253037
:103000003105A1F01A82198289819A810297ACF761
:1030100089819A8101969A83898389819A8102970D
:10302000BCF32F5F3F4F2530310561F7446040937B
:103030000180CF0164E670E00E94DE23605D609352
:10304000008020E030E005C02F5F3F4F2A3031057F
:10305000A1F01A82198289819A810297ACF789813D
:103060009A8101969A83898389819A810297BCF318
:103070002F5F3F4F2A30310561F74B70409301803D
:1030800020E030E005C02F5F3F4F25303105A1F033
:103090001A82198289819A810297ACF789819A8173
:1030A00001969A83898389819A810297BCF32F5F65
:1030B0003F4F2530310561F7CF0164E670E00E9493
:1030C000DE23FC01842F8D7080930180482F4160A6
:1030D0004093018020E030E005C02F5F3F4F253056
:1030E0003105A1F01A82198289819A810297ACF781
:1030F00089819A8101969A83898389819A8102972D
:10310000BCF32F5F3F4F2530310561F7446040939A
:103110000180CF016AE070E00E94DE23605D609371
:10312000008020E030E005C02F5F3F4F2A3031059E
:10313000A1F01A82198289819A810297ACF789815C
:103140009A8101969A83898389819A810297BCF337
:103150002F5F3F4F2A30310561F74B70409301805C
:1031600020E030E005C02F5F3F4F25303105A1F052
:103170001A82198289819A810297ACF789819A8192
:1031800001969A83898389819A810297BCF32F5F84
:103190003F4F2530310561F7842F8D70809301807A
:1031A000482F41604093018020E030E005C02F5F50
:1031B0003F4F25303105A1F01A82198289819A8109
:1031C0000297ACF789819A8101969A8389838981D4
:1031D0009A810297BCF32F5F3F4F2530310561F78D
:1031E000446040930180CF016AE070E00E94DE23DA
:1031F000805D8093008020E030E005C02F5F3F4F6E
:103200002A303105A1F01A82198289819A810297A8
:10321000ACF789819A8101969A83898389819A8101
:103220000297BCF32F5F3F4F2A30310561F7842F9F
:103230008B708093C0018093018020E030E005C056
:103240002F5F3F4F25303105A1F01A821982898105
:103250009A810297ACF789819A8101969A83898332
:1032600089819A810297BCF32F5F3F4F253031054A
:1032700061F70F900F90CF91DF911F910F910895FB
:103280000F931F93DF93CF9300D0CDB7DEB7FC0130
:1032900068EE73E00E94DE23CB0164E670E00E94DA
:1032A000DE23182F092F8091C0018D70809301803B
:1032B000482F41604093018020E030E005C02F5F3F
:1032C0003F4F25303105A1F01A82198289819A81F8
:1032D0000297ACF789819A8101969A8389838981C3
:1032E0009A810297BCF32F5F3F4F2530310561F77C
:1032F000446040930180812F902F6AE070E00E942B
:10330000DE23605D6093008020E030E005C02F5F29
:103310003F4F2A303105A1F01A82198289819A81A2
:103320000297ACF789819A8101969A838983898172
:103330009A810297BCF32F5F3F4F2A30310561F726
:103340004B704093018020E030E005C02F5F3F4F7D
:1033500025303105A1F01A82198289819A8102975C
:10336000ACF789819A8101969A83898389819A81B0
:103370000297BCF32F5F3F4F2530310561F7842F53
:103380008D7080930180482F41604093018020E040
:1033900030E005C02F5F3F4F25303105A1F01A8284
:1033A000198289819A810297ACF789819A81019665
:1033B0009A83898389819A810297BCF32F5F3F4F5B
:1033C0002530310561F7446040930180812F902FB3
:1033D0006AE070E00E94DE23805D8093008020E040
:1033E00030E005C02F5F3F4F2A303105A1F01A822F
:1033F000198289819A810297ACF789819A81019615
:103400009A83898389819A810297BCF32F5F3F4F0A
:103410002A30310561F74B704093018020E030E0A5
:1034200005C02F5F3F4F25303105A1F01A82198268
:1034300089819A810297ACF789819A8101969A8352
:10344000898389819A810297BCF32F5F3F4F253092
:10345000310561F7CF0168EE73E00E94DE23FC01C5
:10346000842F8D7080930180482F416040930180AC
:1034700020E030E005C02F5F3F4F25303105A1F03F
:103480001A82198289819A810297ACF789819A817F
:1034900001969A83898389819A810297BCF32F5F71
:1034A0003F4F2530310561F7446040930180CF01E3
:1034B00064E670E00E94DE23605D6093008020E09F
:1034C00030E005C02F5F3F4F2A303105A1F01A824E
:1034D000198289819A810297ACF789819A81019634
:1034E0009A83898389819A810297BCF32F5F3F4F2A
:1034F0002A30310561F74B704093018020E030E0C5
:1035000005C02F5F3F4F25303105A1F01A82198287
:1035100089819A810297ACF789819A8101969A8371
:10352000898389819A810297BCF32F5F3F4F2530B1
:10353000310561F7CF0164E670E00E94DE23FC01F3
:10354000842F8D7080930180482F416040930180CB
:1035500020E030E005C02F5F3F4F25303105A1F05E
:103560001A82198289819A810297ACF789819A819E
:1035700001969A83898389819A810297BCF32F5F90
:103580003F4F2530310561F7446040930180CF0102
:103590006AE070E00E94DE23605D6093008020E0BE
:1035A00030E005C02F5F3F4F2A303105A1F01A826D
:1035B000198289819A810297ACF789819A81019653
:1035C0009A83898389819A810297BCF32F5F3F4F49
:1035D0002A30310561F74B704093018020E030E0E4
:1035E00005C02F5F3F4F25303105A1F01A821982A7
:1035F00089819A810297ACF789819A8101969A8391
:10360000898389819A810297BCF32F5F3F4F2530D0
:10361000310561F7842F8D7080930180482F4160C0
:103620004093018020E030E005C02F5F3F4F253000
:103630003105A1F01A82198289819A810297ACF72B
:1036400089819A8101969A83898389819A810297D7
:10365000BCF32F5F3F4F2530310561F74460409345
:103660000180CF016AE070E00E94DE23805D8093DC
:10367000008020E030E005C02F5F3F4F2A30310549
:10368000A1F01A82198289819A810297ACF7898107
:103690009A8101969A83898389819A810297BCF3E2
:1036A0002F5F3F4F2A30310561F7842F8B70809355
:1036B000C0018093018020E030E005C02F5F3F4FC4
:1036C00025303105A1F01A82198289819A810297E9
:1036D000ACF789819A8101969A83898389819A813D
:1036E0000297BCF32F5F3F4F2530310561F70F90F4
:1036F0000F90CF91DF911F910F910895DF93CF939A
:1037000000D0CDB7DEB7FC018091C0018D708093F1
:103710000180482F41604093018020E030E005C0E7
:103720002F5F3F4F25303105A1F01A821982898120
:103730009A810297ACF789819A8101969A8389834D
:1037400089819A810297BCF32F5F3F4F2530310565
:1037500061F7446040930180CF0168EE73E00E94FE
:10376000DE23CB016AE070E00E94DE23805D80935F
:10377000008020E030E005C02F5F3F4F2A30310548
:10378000A1F01A82198289819A810297ACF7898106
:103790009A8101969A83898389819A810297BCF3E1
:1037A0002F5F3F4F2A30310561F74B704093018006
:1037B00020E030E005C02F5F3F4F25303105A1F0FC
:1037C0001A82198289819A810297ACF789819A813C
:1037D00001969A83898389819A810297BCF32F5F2E
:1037E0003F4F2530310561F7CF0168EE73E00E944D
:1037F000DE23FC01842F8D7080930180482F41606F
:103800004093018020E030E005C02F5F3F4F25301E
:103810003105A1F01A82198289819A810297ACF749
:1038200089819A8101969A83898389819A810297F5
:10383000BCF32F5F3F4F2530310561F74460409363
:103840000180CF0164E670E00E94DE23605D60933A
:10385000008020E030E005C02F5F3F4F2A30310567
:10386000A1F01A82198289819A810297ACF7898125
:103870009A8101969A83898389819A810297BCF300
:103880002F5F3F4F2A30310561F74B704093018025
:1038900020E030E005C02F5F3F4F25303105A1F01B
:1038A0001A82198289819A810297ACF789819A815B
:1038B00001969A83898389819A810297BCF32F5F4D
:1038C0003F4F2530310561F7CF0164E670E00E947B
:1038D000DE23FC01842F8D7080930180482F41608E
:1038E0004093018020E030E005C02F5F3F4F25303E
:1038F0003105A1F01A82198289819A810297ACF769
:1039000089819A8101969A83898389819A81029714
:10391000BCF32F5F3F4F2530310561F74460409382
:103920000180CF016AE070E00E94DE23605D609359
:10393000008020E030E005C02F5F3F4F2A30310586
:10394000A1F01A82198289819A810297ACF7898144
:103950009A8101969A83898389819A810297BCF31F
:103960002F5F3F4F2A30310561F74B704093018044
:1039700020E030E005C02F5F3F4F25303105A1F03A
:103980001A82198289819A810297ACF789819A817A
:1039900001969A83898389819A810297BCF32F5F6C
:1039A0003F4F2530310561F7842F8D708093018062
:1039B000482F41604093018020E030E005C02F5F38
:1039C0003F4F25303105A1F01A82198289819A81F1
:1039D0000297ACF789819A8101969A8389838981BC
:1039E0009A810297BCF32F5F3F4F2530310561F775
:1039F000446040930180CF016AE070E00E94DE23C2
:103A0000805D8093008020E030E005C02F5F3F4F55
:103A10002A303105A1F01A82198289819A81029790
:103A2000ACF789819A8101969A83898389819A81E9
:103A30000297BCF32F5F3F4F2A30310561F7842F87
:103A40008B708093C0018093018020E030E005C03E
:103A50002F5F3F4F25303105A1F01A8219828981ED
:103A60009A810297ACF789819A8101969A8389831A
:103A700089819A810297BCF32F5F3F4F2530310532
:103A800061F70F900F90CF91DF910895F8940E9405
:103A900083030E94C6030E9410040E94550717BAB0
:103AA00020E030E040E951E0CA010197F1F72F5FD3
:103AB0003F4F83E128383807B9F70E94F9220E9466
:103AC000292178940895CF93DF9383EC91E00E94AD
:103AD0008100EC0107C0CE010E940F23CE010E949D
:103AE0008500EC0183EC91E00E948900C817D9079A
:103AF00091F7DF91CF910895CF93DF9383EC91E01D
:103B00000E946E01882319F0DF91CF91089583EC14
:103B100091E00E948100EC0108C0EA89FB89CE0196
:103B20000995CE010E948500EC0183EC91E00E9492
:103B30008900C817D90789F7DF91CF91089588E0E8
:103B400062E00E948F08809146019091470118160B
:103B500019060CF43EC084E391E00E943F0C88E01B
:103B600063E00E948F08809146019091470102977F
:103B70000CF043C084E391E00E943F0C88E064E0D5
:103B80000E948F088091460190914701039784F528
:103B900084E391E00E943F0C88E065E00E948F087A
:103BA00080914601909147010497ECF484E391E001
:103BB0000E943F0C88E066E00E948F0880914601D9
:103BC00090914701059754F086E391E00E943F0CE5
:103BD000089586E391E00E943F0CC1CF84E391E019
:103BE0000E943F0C089586E391E00E943F0CE2CFD3
:103BF00086E391E00E943F0CCFCF86E391E00E94E4
:103C00003F0CBCCF88E061E00E948F088091AC013E
:103C10009091AD010E9495160895EF92FF920F9337
:103C20001F93CF93DF9383EC91E00E946E01882372
:103C300039F0DF91CF911F910F91FF90EF90089590
:103C400083EC91E00E948100EC0101E010E0EE24A1
:103C5000EA94FE2C09C088899989892B09F06CC0E7
:103C6000CE010E948500EC0183EC91E00E94890066
:103C7000C817D907F1F2EC89FD89CE0109958C812D
:103C80009D81039741F7E091CB01F091CC014085F4
:103C900051852885398584859585840F951F28173A
:103CA000390794F48C859D85820F931F4817590717
:103CB0005CF46E817F81468157818A859B85860F62
:103CC000971F48175907E4F1E091C101F091C20133
:103CD0004085518584859585840F951F2817390760
:103CE0000CF0B9CF8C859D85280F391F42175307DB
:103CF0000CF0B1CF4E815F81268137818A859B850B
:103D0000840F951F281739070CF0A5CF828593855E
:103D1000280F391F421753070CF09DCF198B088BC2
:103D200080914601909147010197909347018093BC
:103D300046010E949F1D8FCFCE010E940F2390CF7E
:103D400082859385480F591F641775070CF0BCCF07
:103D5000198B088BF186E0868091AC019091AD01C2
:103D60008C599F4F9093AD018093AC018091AE012F
:103D70009091AF018C599F4F9093AF018093AE010A
:103D80000E94021E288539859FCF80ED97E00E9412
:103D90005D221092AB011092AA011092AD01109217
:103DA000AC0183E090E0909347018093460110922C
:103DB000B1011092B00183EC91E00E9476000E9464
:103DC000C30681E068E371E00E94210A82E06FE3AC
:103DD00071E00E94210A88E061E00E948F088091D2
:103DE000AC019091AD010E94951688E062E00E94BE
:103DF0008F088091460190914701181619060CF41E
:103E000062C084E391E00E943F0C88E063E00E947E
:103E10008F08809146019091470102970CF067C08E
:103E200084E391E00E943F0C88E064E00E948F08E8
:103E3000809146019091470103970CF053C084E3B1
:103E400091E00E943F0C88E065E00E948F0880911D
:103E500046019091470104970CF03FC084E391E044
:103E60000E943F0C88E066E00E948F088091460126
:103E700090914701059764F186E391E00E943F0C21
:103E80000E942204FC019093C2018093C101178219
:103E9000168288E090E09187808783EC91E0BF01F3
:103EA0000E94F8000E945323FC019093CC01809360
:103EB000CB018AE090E09187808783EC91E0BF019D
:103EC0000E94F800089586E391E00E943F0C9DCF88
:103ED00084E391E00E943F0CD3CF86E391E00E94FF
:103EE0003F0CC0CF86E391E00E943F0CACCF86E34D
:103EF00091E00E943F0C98CFCF93DF9383EC91E049
:103F00000E946E01882339F00E94C6030E94FA03C2
:103F1000DF91CF91089583EC91E00E948100EC0144
:103F200008C0EA89FB89CE010995CE010E9485006F
:103F3000EC0183EC91E00E948900C817D90789F74A
:103F40000E94C6030E94FA03DF91CF9108950F9358
:103F50001F93CF93DF930E9468228C53964F880F54
:103F6000991F2091AA013091AB01821793070CF49D
:103F700058C0A091CB01B091CC011E968D919C911F
:103F80001F97892B21F486B3823009F462C0B1995E
:103F900004C01092B1011092B0018091460190913D
:103FA0004701892BF9F08091AE019091AF01885EB5
:103FB000934054F00E9468228C5291400E945D22EE
:103FC0001092AF011092AE018091AA019091AB01C5
:103FD00001969093AB018093AA01DF91CF911F913D
:103FE0000F9108958091AC019091AD010E946D22D6
:103FF00083EC91E00E948100EC0107C0CE010E9499
:104000000F23CE010E948500EC0183EC91E00E9419
:104010008900C817D90791F783E090E00E94D00487
:10402000C2CF0E9493228C010E94652568E070E057
:104030000E94F223F801978386831186108683EC11
:1040400091E0B8010E94F8001092AB011092AA0111
:1040500090CF8091B0019091B101892B09F097CF59
:10406000E091C101F091C201868197810196179676
:104070009C938E9316978085918519969C938E9329
:10408000189781E090E09093B1018093B0017FCFC9
:10409000EF92FF920F931F93CF93DF9383EC91E006
:1040A0000E946E01882349F00E94A71FDF91CF91E3
:1040B0001F910F91FF90EF90089583EC91E00E9483
:1040C0008100EC0101E010E0EE24EA94FE2C09C02E
:1040D00088899989892B09F06CC0CE010E948500DE
:1040E000EC0183EC91E00E948900C817D907E1F246
:1040F000EC89FD89CE0109958C819D81039741F75B
:10410000E091CB01F091CC0140855185288539851E
:1041100084859585840F951F2817390794F48C851D
:104120009D85820F931F481759075CF46E817F812C
:10413000468157818A859B85860F971F48175907A7
:10414000E4F1E091C101F091C2014085518584857F
:104150009585840F951F281739070CF0B9CF8C85EA
:104160009D85280F391F421753070CF0B1CF4E81A0
:104170005F81268137818A859B85840F951F28174B
:1041800039070CF0A5CF82859385280F391F421778
:1041900053070CF09DCF198B088B809146019091AD
:1041A0004701019790934701809346010E949F1D0C
:1041B0008FCFCE010E940F2390CF82859385480F29
:1041C000591F641775070CF0BCCF198B088BF1864B
:1041D000E0868091AC019091AD018C599F4F9093F6
:1041E000AD018093AC018091AE019091AF018C59EB
:1041F0009F4F9093AF018093AE010E94021E2885CD
:1042000039859FCF1F920F920FB60F9211242F93D3
:104210003F938F939F9312BE87EC86B917B886B1F0
:10422000876C86B9349BFECF349A34B125B1922F76
:1042300080E0830F911D9093B3018093B201349A73
:104240009F918F913F912F910F900FBE0F901F90D4
:10425000189585E083BF12BE87B7816087BF80E86D
:1042600088B908958091B2019091B30108950E9498
:104270001A23FC0182E090E0958384838AE090E039
:10428000938782879587848780E791E2938B828BDF
:104290008EE491E2958B848BCF0108950E94682271
:1042A0002091B4013091B501821793076CF480918D
:1042B000B6019091B70101969093B7018093B60132
:1042C00003974CF420E030E02F5F3F4F3093B5016F
:1042D0002093B40108951092B7011092B601F2CF65
:1042E0006091B6017091B7016450704080E090E039
:1042F0000E9486036091B6017091B70163507040CF
:1043000080E090E00E9486036091B6017091B70151
:104310006450704089E090E00E9486036091B6018D
:104320007091B7016350704089E090E00E9486036D
:104330006091B6017091B7016150704080E090E0EB
:104340000E9486036091B6017091B70180E090E011
:104350000E9486036091B6017091B7016150704070
:1043600089E090E00E9486036091B6017091B701E8
:1043700089E090E00E9486036091B6017091B701D8
:104380006E5F7F4F80E090E00E9486036091B601EF
:104390007091B7016D5F7F4F80E090E00E948603CF
:1043A0006091B6017091B7016E5F7F4F89E090E038
:1043B0000E9486036091B6017091B7016D5F7F4FD7
:1043C00089E090E00E9486036091B6017091B70188
:1043D0006B5F7F4F80E090E00E9486036091B601A2
:1043E0007091B7016A5F7F4F80E090E00E94860382
:1043F0006091B6017091B7016B5F7F4F89E090E0EB
:104400000E9486036091B6017091B7016A5F7F4F89
:1044100089E090E00E9486036091B6017091B70137
:10442000685F7F4F80E090E00E9486036091B60154
:104430007091B701675F7F4F80E090E00E94860334
:104440006091B6017091B701685F7F4F89E090E09D
:104450000E9486036091B6017091B701675F7F4F3C
:1044600089E090E00E9486036091B6017091B701E7
:10447000655F7F4F80E090E00E9486036091B60107
:104480007091B701645F7F4F80E090E00E948603E7
:104490006091B6017091B701655F7F4F89E090E050
:1044A0000E9486036091B6017091B701645F7F4FEF
:1044B00089E090E00E9486030895909349018093DB
:1044C000480197FF089510924901109248010895FC
:1044D000809148019091490108959093B90180938A
:1044E000B80108958091B8019091B901089580E0D4
:1044F00090E00E94C125813021F020E030E0C90128
:10450000089581E090E00E94C9259C01C9010895A9
:10451000BC0181E090E00E94DC2580E090E061E059
:104520000E94CF2508950E941A23FC0182E090E0AA
:10453000938782879587848783E090E0958384833F
:104540008EEC92E2938B828B8AEA92E2958B848B3B
:10455000CF010895CF93DF93EC01888599850B9760
:1045600024F081E090E0998B888B0E946822209152
:10457000BC013091BD01821793073CF48885998571
:1045800001969987888720E030E02F5F3F4F309376
:10459000BD012093BC01DF91CF9108950F931F932C
:1045A0008C01FC0160857185868197810E9486035C
:1045B000F801868197816085718501960E94860346
:1045C000F801608571856F5F7F4F868197810E94BA
:1045D0008603F80186819781608571856F5F7F4FC3
:1045E00001960E9486031F910F9108950E946A25EB
:1045F000089580E888B9089587EC86B983E487B97F
:1046000086B1876C86B9349BFECF349A94B185B15C
:10461000349A382F20E0290F311DC90108950F93D6
:104620001F938C010E940E01C8010E94B2241F91A9
:104630000F91089586E190E00E940524FC01158207
:1046400014821782168211861086138612861586AA
:10465000148621E030E037872687118A108A089572
:10466000FC012085318537FD18C081E090E09787F7
:1046700086878091BE019091BF0142E08935940701
:1046800034F0215030403187208780E090E001965F
:104690009093BF018093BE01089586B3882329F3C8
:1046A0001786168608950E941A23FC0184E090E084
:1046B0009583848381E090E09387828795878487C0
:1046C0008FEF9FEF978386839187808780E393E2C4
:1046D000958B848B80E793E2938B828BCF01089537
:1046E000FC0160857185868197810E94860308950B
:1046F000089586B3882309F0B199089581E090E088
:104700000E94D00408950F931F93CF93DF930E94CC
:104710007222EC010E9477228C010E94EF030E941A
:10472000C3060C171D07C8F481E06AE471E00E941B
:10473000210ACE010E94882282E067E671E00E9491
:10474000210A0E9472220E94951686B38823E9F7F7
:10475000DF91CF911F910F91089581E069E571E09C
:104760000E94210AE9CF089586B3882309F0B19900
:10477000089581E090E00E94D00408950E94C3064D
:1047800081E06EE671E00E94210A82E06DE771E04F
:104790000E94210A0E9477220E94951686B38823E0
:1047A000E9F70895991B79E004C0991F961708F05E
:1047B000961B881F7A95C9F780950895AA1BBB1B85
:1047C00051E107C0AA1FBB1FA617B70710F0A61B11
:1047D000B70B881F991F5A95A9F780959095BC0132
:1047E000CD01089597FB092E07260AD077FD04D046
:1047F000E5DF06D000201AF4709561957F4F08958B
:10480000F6F7909581959F4F0895CF93DF93BC0164
:104810008230910510F462E070E0A091CF01B09178
:10482000D001ED01E0E0F0E040E050E021C08881FF
:1048300099818617970769F48A819B81309719F0CF
:104840009383828304C09093D0018093CF01FE01B3
:1048500034C06817790738F44115510519F08417E9
:10486000950708F4AC01FE018A819B819C01E90156
:104870002097E9F641155105A9F1CA01861B970B4E
:10488000049708F4BA01E0E0F0E02AC08D919C9111
:10489000119784179507F9F46417750781F4129638
:1048A0008D919C911397309719F09383828304C064
:1048B0009093D0018093CF01FD0132964FC0CA0181
:1048C000861B970BFD01E80FF91F61937193029707
:1048D0008D939C9343C0FD01828193819C01D901FA
:1048E0001097A1F68091CD019091CE01892B41F4D2
:1048F00080918701909188019093CE018093CD01A2
:104900004091890150918A014115510541F44DB7FB
:104910005EB78091850190918601481B590B2091CB
:10492000CD013091CE0124173507B0F4CA01821BA6
:10493000930B8617970780F0AB014E5F5F4F84178C
:10494000950750F0420F531F5093CE014093CD0175
:10495000F9016193719302C0E0E0F0E0CF01DF91D3
:10496000CF910895CF93DF93009709F450C0EC01E5
:1049700022971B821A82A091CF01B091D00110978B
:1049800009F140E050E0AC17BD0708F1BB83AA83F2
:10499000FE0121913191E20FF31FAE17BF0779F4A9
:1049A0008D919C911197280F391F2E5F3F4F3983AE
:1049B000288312968D919C9113979B838A8341152E
:1049C000510571F4D093D001C093CF0120C012964D
:1049D0008D919C911397AD01009711F0DC01D3CF1D
:1049E000FA01D383C28321913191E20FF31FCE17D5
:1049F000DF0769F488819981280F391F2E5F3F4FA7
:104A0000FA01318320838A819B8193838283DF91A2
:104A1000CF910895AF92BF92CF92DF92EF92FF9223
:104A20000F931F93CF93DF93EC01A880B980CA80C6
:104A3000DB80A114B104C104D10441F484E2A82EA6
:104A400089EDB82E8BE5C82E87E0D82EC601B501BA
:104A50002DE133EF41E050E00E94332627EA31E4B4
:104A600040E050E00E9414267B018C01C601B50194
:104A70002DE133EF41E050E00E943326CA01B90135
:104A80002CEE34EF4FEF5FEF0E9414266E0D7F1D6A
:104A9000801F911F97FF04C0615070408040904874
:104AA000688379838A839B839B013F77C901DF9168
:104AB000CF911F910F91FF90EF90DF90CF90BF901B
:104AC000AF9008950E940A2508958BE891E00E9416
:104AD0000A250895A0E0B0E080938B0190938C01AB
:104AE000A0938D01B0938E0108950F931F93CF93E0
:104AF000DF938C01EB01009731F46115710519F416
:104B000020E030E038C081E090E06EE070E00E948C
:104B1000E125FC019C01009771F180E883832097D7
:104B200071F0D387C28781E883838091D10190910E
:104B3000D201892B21F4F093D201E093D101011528
:104B40001105C9F01187008783818260838380917A
:104B5000D3019091D401892B71F4F093D401E093A7
:104B6000D3018091D5019091D601892B21F4F09346
:104B7000D601E093D501C901DF91CF911F910F912B
:104B80000895E199FECF9FBB8EBBE09A99278DB324
:104B90000895A8E1B0E042E050E00C940626262FEC
:104BA000E199FECF9FBB8EBB2DBB0FB6F894E29A66
:104BB000E19A0FBE019608950E94CF25272F0C94ED
:104BC000D0250F931F93CF93DF93689F8001699F38
:104BD000100D789F100D1124C8010E940524EC01CE
:104BE000009729F060E070E0A8010E94FD25CE0149
:104BF000DF91CF911F910F910895DC0101C06D935A
:104C000041505040E0F70895DC01CB01FC01E199EF
:104C1000FECF06C0FFBBEEBBE09A31960DB20D92FF
:104C200041505040B8F70895629FD001739FF00142
:104C3000829FE00DF11D649FE00DF11D929FF00D2C
:104C4000839FF00D749FF00D659FF00D9927729F63
:104C5000B00DE11DF91F639FB00DE11DF91FBD01EE
:104C6000CF011124089597FB092E05260ED057FD7C
:104C700004D014D00AD0001C38F4509540953095DB
:104C800021953F4F4F4F5F4F0895F6F790958095D0
:104C9000709561957F4F8F4F9F4F0895A1E21A2E17
:104CA000AA1BBB1BFD010DC0AA1FBB1FEE1FFF1FD0
:104CB000A217B307E407F50720F0A21BB30BE40B20
:104CC000F50B661F771F881F991F1A9469F7609567
:104CD0007095809590959B01AC01BD01CF01089521
:044CE000F894FFCF76
:104CE4002020002D3E0020202047616D6520537454
:104CF40061727400202020486967682053636F72D2
:104D040065000100303132333435363738394142A9
:104D1400434445462000400053636F72653A004C9B
:104D2400696665203A000300DC05203C4869676831
:104D34002053636F7265213E0020203C47616D65FE
:104D4400204F7665723E0053636F72653A002020EF
:104D54003C486967682053636F72653E0053636F14
:104D640072653A20002000D7010000010000000015
:00000001FF
